:100000000C9434000C948F000C94AE000C945100AE
:100010000C9451000C9451000C9451000C9451001C
:100020000C9451000C9451000C9451000C9451000C
:100030000C9451000C9451000C9451000C945100FC
:100040000C9451000C9451000C9451000C945100EC
:100050000C9451000C9451000C9451000C945100DC
:100060000C9451000C94510011241FBECFEFD8E026
:10007000DEBFCDBF11E0A0E0B1E0E2E1F4E002C0FC
:1000800005900D92A630B107D9F721E0A6E0B1E0C6
:1000900001C01D92AE30B207E1F70E9453000C94EC
:1000A00007020C9400000E9482000E94CD000E9472
:1000B000A3010E941C01FDCFCF93DF93482F392F5E
:1000C000F62F6AE070E00E94F301282FE5E0CAE015
:1000D000D0E0F53061F4822FDF91CF910895842F25
:1000E000932FBE010E94F301282FFE17A1F3842F46
:1000F000932FBE010E94F301462F372FE150E111EB
:10010000EECFE9CF8AB1837F8AB985E08093690019
:1001100083E08DBB84E08093B100789408951F92B2
:100120001FB61F9211242F938F939F934A9B0AC04F
:10013000E9981092B2009F918F912F911F901FBE4E
:100140001F9018952091B2008EE690E0821B9109D5
:100150009093090180930801E99AEDCF1F921FB691
:100160001F9211242F938F939F934B9B0AC0E89863
:100170001092B2009F918F912F911F901FBE1F90E0
:1001800018952091B2008EE690E0821B9109909321
:10019000070180930601E89AEDCF84B1866084B9A7
:1001A0008AB180668AB981EA809380008AE0809370
:1001B000810083EA84BD82E085BD089540910801F5
:1001C0005091090180910601909107019A01281B25
:1001D000390B840F951F57FF05C0522F432F9C01E9
:1001E000852F942F880F991F90930D0180930C01F8
:1001F000220F331F30930B0120930A018B3F91058F
:10020000ACF08AEF90E090930D0180930C018AEF9F
:1002100090E02B3F31052CF426303F4F34F486E03C
:100220009FEF90930B0180930A01089586309F4FB2
:1002300074F786E09FEFE7CF0E94DE0080910C010B
:1002400090910D01843091050CF45EC090938B0069
:1002500080938A00109289001092880080910A0190
:1002600090910B01843091050CF463C088BD17BCDC
:1002700080910801909109010E94EC0180E091E0D9
:100280000E94E00180910601909107010E94EC011B
:1002900080E091E00E94E00180910C0190910D01BD
:1002A0000E94EC0180E091E00E94E00180910A014F
:1002B00090910B010E94EC0180E091E00E94E0012E
:1002C00080918A0090918B000E94EC0180E091E087
:1002D0000E94E00180918800909189000E94EC01C9
:1002E00080E091E00E94E00188B590E00E94EC017E
:1002F00080E091E00E94E00187B590E00E94EC016F
:1003000082E091E00C94E0018D3F2FEF920764F4BE
:10031000919581959109909389008093880010921E
:100320008B0010928A009ACF109289001092880058
:10033000F6CF8D3F2FEF920724F4819587BD18BC2F
:1003400097CF17BCFCCFE1ECF0E08081886180831F
:10035000E2ECF0E08081866080831092C50083E348
:100360008093C40008959091C00095FFFCCF8093C6
:10037000C60008950F931F93CF93DF93EC0197FF6F
:1003800006C0D195C195D1098DE20E94B30101E06B
:10039000102F0F5F612FCE010E945C008823C1F3F4
:1003A000163028F0DF91CF911F910F910895612FA2
:1003B000CE010E945C00805D0E94B3011F5FF0CF00
:1003C000CF93DF93EC018991811103C0DF91CF912D
:1003D00008950E94B301F7CF009711F00C94BA0171
:1003E00080E30C94B301AA1BBB1B51E107C0AA1FF9
:1003F000BB1FA617B70710F0A61BB70B881F991FC6
:100400005A95A9F780959095BC01CD010895F8946F
:02041000FFCF1C
:0604120009000D0A0000C4
:00000001FF
